{
  "contractName": "Helper",
  "abi": [
    {
      "constant": true,
      "inputs": [
        {
          "name": "choice",
          "type": "uint8"
        },
        {
          "name": "nonce",
          "type": "uint256"
        }
      ],
      "name": "helpCommitment",
      "outputs": [
        {
          "name": "",
          "type": "bytes32"
        }
      ],
      "payable": false,
      "stateMutability": "pure",
      "type": "function"
    }
  ],
  "bytecode": "0x608060405234801561001057600080fd5b5060e78061001f6000396000f3fe6080604052348015600f57600080fd5b506004361060285760003560e01c806366aaaff814602d575b600080fd5b606360048036036040811015604157600080fd5b81019080803560ff169060200190929190803590602001909291905050506079565b6040518082815260200191505060405180910390f35b60008282604051602001808360ff1660ff1660f81b8152600101828152602001925050506040516020818303038152906040528051906020012090509291505056fea165627a7a723058204598cc3d525c53a88f4bca235c9124bb01c7821e4e511f41d2ab7af968bbf1cc0029",
  "source": "pragma solidity ^0.5.8;\n\ncontract Helper {\n    function helpCommitment(uint8 choice, uint256 nonce) public pure returns (bytes32) {\n        return keccak256(abi.encodePacked(choice, nonce));\n    }\n}\n",
  "sourcePath": "/home/bhavidhingra/google-drive-iiith/Semester_#3/CSE512_Distributing_Trust_and_Block_Chains/Assignments/1/HighLow/contracts/Helper.sol",
  "compiler": {
    "name": "solc",
    "version": "0.5.8+commit.23d335f2.Emscripten.clang"
  },
  "schemaVersion": "3.0.16",
  "updatedAt": "2019-09-16T07:34:34.647Z",
  "devdoc": {
    "methods": {}
  },
  "userdoc": {
    "methods": {}
  }
}