{
  "contractName": "HighLow",
  "abi": [
    {
      "constant": true,
      "inputs": [],
      "name": "curr_card_index",
      "outputs": [
        {
          "name": "",
          "type": "uint256"
        }
      ],
      "payable": false,
      "stateMutability": "view",
      "type": "function"
    },
    {
      "constant": true,
      "inputs": [],
      "name": "MAX_CARDS",
      "outputs": [
        {
          "name": "",
          "type": "uint256"
        }
      ],
      "payable": false,
      "stateMutability": "view",
      "type": "function"
    },
    {
      "constant": true,
      "inputs": [],
      "name": "SUITE_SIZE",
      "outputs": [
        {
          "name": "",
          "type": "uint256"
        }
      ],
      "payable": false,
      "stateMutability": "view",
      "type": "function"
    },
    {
      "constant": true,
      "inputs": [
        {
          "name": "",
          "type": "uint256"
        }
      ],
      "name": "cards",
      "outputs": [
        {
          "name": "",
          "type": "uint256"
        }
      ],
      "payable": false,
      "stateMutability": "view",
      "type": "function"
    },
    {
      "constant": true,
      "inputs": [],
      "name": "announced_card",
      "outputs": [
        {
          "name": "",
          "type": "uint256"
        }
      ],
      "payable": false,
      "stateMutability": "view",
      "type": "function"
    },
    {
      "constant": true,
      "inputs": [],
      "name": "start_block",
      "outputs": [
        {
          "name": "",
          "type": "uint256"
        }
      ],
      "payable": false,
      "stateMutability": "view",
      "type": "function"
    },
    {
      "constant": true,
      "inputs": [],
      "name": "SHUFFLE_LIMIT",
      "outputs": [
        {
          "name": "",
          "type": "uint256"
        }
      ],
      "payable": false,
      "stateMutability": "view",
      "type": "function"
    },
    {
      "constant": true,
      "inputs": [],
      "name": "wait_blocks",
      "outputs": [
        {
          "name": "",
          "type": "uint256"
        }
      ],
      "payable": false,
      "stateMutability": "view",
      "type": "function"
    },
    {
      "constant": true,
      "inputs": [],
      "name": "house",
      "outputs": [
        {
          "name": "",
          "type": "address"
        }
      ],
      "payable": false,
      "stateMutability": "view",
      "type": "function"
    },
    {
      "inputs": [],
      "payable": false,
      "stateMutability": "nonpayable",
      "type": "constructor"
    },
    {
      "constant": false,
      "inputs": [
        {
          "name": "_commit",
          "type": "bytes32"
        }
      ],
      "name": "bet_commit",
      "outputs": [],
      "payable": true,
      "stateMutability": "payable",
      "type": "function"
    },
    {
      "constant": false,
      "inputs": [
        {
          "name": "choice",
          "type": "uint8"
        },
        {
          "name": "nonce",
          "type": "uint256"
        }
      ],
      "name": "bet_reveal",
      "outputs": [],
      "payable": false,
      "stateMutability": "nonpayable",
      "type": "function"
    }
  ],
  "bytecode": "0x608060405234801561001057600080fd5b50336000806101000a81548173ffffffffffffffffffffffffffffffffffffffff021916908373ffffffffffffffffffffffffffffffffffffffff16021790555061005f61006460201b60201c565b610193565b436020819055506000603442604051602001808281526020019150506040516020818303038152906040528051906020012060001c816100a057fe5b0690505b6100b38161014c60201b60201c565b806100c057506002602154105b806100cd5750600a602154115b1561011e57603442604051602001808281526020019150506040516020818303038152906040528051906020012060001c8161010557fe5b069050600d818161011257fe5b066021819055506100a4565b601e6001601f54018161012d57fe5b06601f81905550806001601f54601e811061014457fe5b018190555050565b600080600090505b601e81101561018857600181601e811061016a57fe5b015483141561017d57600191505061018e565b806001019050610154565b50600090505b919050565b6109bc806101a26000396000f3fe60806040526004361061009c5760003560e01c80638dc10768116100645780638dc10768146101985780639d3a7637146101e7578063b87fb3db14610212578063c14487871461023d578063e5677fb114610268578063ff9b3acf146102935761009c565b8063517b325e146100a15780636a67db40146100e95780637dd141a8146101175780637e744a7614610142578063847d68891461016d575b600080fd5b3480156100ad57600080fd5b506100e7600480360360408110156100c457600080fd5b81019080803560ff169060200190929190803590602001909291905050506102ea565b005b610115600480360360208110156100ff57600080fd5b8101908080359060200190929190505050610701565b005b34801561012357600080fd5b5061012c610804565b6040518082815260200191505060405180910390f35b34801561014e57600080fd5b5061015761080a565b6040518082815260200191505060405180910390f35b34801561017957600080fd5b5061018261080f565b6040518082815260200191505060405180910390f35b3480156101a457600080fd5b506101d1600480360360208110156101bb57600080fd5b8101908080359060200190929190505050610814565b6040518082815260200191505060405180910390f35b3480156101f357600080fd5b506101fc61082c565b6040518082815260200191505060405180910390f35b34801561021e57600080fd5b50610227610832565b6040518082815260200191505060405180910390f35b34801561024957600080fd5b50610252610838565b6040518082815260200191505060405180910390f35b34801561027457600080fd5b5061027d61083d565b6040518082815260200191505060405180910390f35b34801561029f57600080fd5b506102a8610842565b604051808273ffffffffffffffffffffffffffffffffffffffff1673ffffffffffffffffffffffffffffffffffffffff16815260200191505060405180910390f35b6000602260003373ffffffffffffffffffffffffffffffffffffffff1673ffffffffffffffffffffffffffffffffffffffff16815260200190815260200160002060010154601f54031180156103865750601e602260003373ffffffffffffffffffffffffffffffffffffffff1673ffffffffffffffffffffffffffffffffffffffff16815260200190815260200160002060010154601f5403105b61038f57600080fd5b60016020540143106103a4576103a3610867565b5b60008282604051602001808360ff1660ff1660f81b8152600101828152602001925050506040516020818303038152906040528051906020012090506000600d6001602260003373ffffffffffffffffffffffffffffffffffffffff1673ffffffffffffffffffffffffffffffffffffffff16815260200190815260200160002060010154601e811061043357fe5b01548161043c57fe5b0690506000600d6001601e8061044e57fe5b6001602260003373ffffffffffffffffffffffffffffffffffffffff1673ffffffffffffffffffffffffffffffffffffffff1681526020019081526020016000206001015408601e811061049e57fe5b0154816104a757fe5b069050602260003373ffffffffffffffffffffffffffffffffffffffff1673ffffffffffffffffffffffffffffffffffffffff168152602001908152602001600020600201548314156106fa57818114156105ab576000809054906101000a900473ffffffffffffffffffffffffffffffffffffffff1673ffffffffffffffffffffffffffffffffffffffff166108fc602260003373ffffffffffffffffffffffffffffffffffffffff1673ffffffffffffffffffffffffffffffffffffffff168152602001908152602001600020600001549081150290604051600060405180830381858888f193505050501580156105a5573d6000803e3d6000fd5b506106f9565b81811080156105bd575060008560ff16145b15610653573373ffffffffffffffffffffffffffffffffffffffff166108fc602260003373ffffffffffffffffffffffffffffffffffffffff1673ffffffffffffffffffffffffffffffffffffffff168152602001908152602001600020600001546002029081150290604051600060405180830381858888f1935050505015801561064d573d6000803e3d6000fd5b506106f8565b8181118015610665575060018560ff16145b156106f7573373ffffffffffffffffffffffffffffffffffffffff166108fc602260003373ffffffffffffffffffffffffffffffffffffffff1673ffffffffffffffffffffffffffffffffffffffff168152602001908152602001600020600001546002029081150290604051600060405180830381858888f193505050501580156106f5573d6000803e3d6000fd5b505b5b5b5b5050505050565b662386f26fc1000034101561071557600080fd5b34602260003373ffffffffffffffffffffffffffffffffffffffff1673ffffffffffffffffffffffffffffffffffffffff16815260200190815260200160002060000181905550601f54602260003373ffffffffffffffffffffffffffffffffffffffff1673ffffffffffffffffffffffffffffffffffffffff1681526020019081526020016000206001018190555080602260003373ffffffffffffffffffffffffffffffffffffffff1673ffffffffffffffffffffffffffffffffffffffff16815260200190815260200160002060020181905550600160205401431061080157610800610867565b5b50565b601f5481565b603481565b600d81565b600181601e811061082157fe5b016000915090505481565b60215481565b60205481565b601e81565b600181565b6000809054906101000a900473ffffffffffffffffffffffffffffffffffffffff1681565b436020819055506000603442604051602001808281526020019150506040516020818303038152906040528051906020012060001c816108a357fe5b0690505b6108b081610949565b806108bd57506002602154105b806108ca5750600a602154115b1561091b57603442604051602001808281526020019150506040516020818303038152906040528051906020012060001c8161090257fe5b069050600d818161090f57fe5b066021819055506108a7565b601e6001601f54018161092a57fe5b06601f81905550806001601f54601e811061094157fe5b018190555050565b600080600090505b601e81101561098557600181601e811061096757fe5b015483141561097a57600191505061098b565b806001019050610951565b50600090505b91905056fea165627a7a723058209f87cf7689d82b2e8b3c52a3a0f87ca389428f9cb04f5746e1c8f15d5a5310aa0029",
  "source": "pragma solidity ^0.5.8;\n\ncontract HighLow {\n    address payable public house;             // contract owner\n    uint public constant SHUFFLE_LIMIT = 30;\n    uint public constant MAX_CARDS = 52; //could be any lucky number\n    uint public constant SUITE_SIZE = 13; //Small Lucky number (should divide MAX_CARDS)\n    uint[SHUFFLE_LIMIT] public cards;\n    uint public curr_card_index;\n    uint public constant wait_blocks = 1;\n    uint public start_block;\n    uint public announced_card;\n\n    struct Player {\n        uint bet_amount;\n        uint idx;\n        bytes32 commitment;\n    }\n\n    constructor() public {\n        house = msg.sender;\n        new_card();\n    }\n\n    function already_announced(uint rand) internal view returns(bool) {\n        for(uint i = 0; i < SHUFFLE_LIMIT; ++i) {\n            if(rand == cards[i]) {\n                return true;\n            }\n        }\n        return false;\n    }\n\n    function new_card() internal {\n        start_block = block.number;\n        uint rand = uint256(keccak256(abi.encodePacked(now))) % MAX_CARDS;\n        while(already_announced(rand) || announced_card < 2 || announced_card > 10) {\n            rand = uint256(keccak256(abi.encodePacked(now))) % MAX_CARDS;\n            announced_card = rand % SUITE_SIZE;\n        }\n        curr_card_index = (curr_card_index + 1) % SHUFFLE_LIMIT;\n        cards[curr_card_index] = rand;\n    }\n\n    mapping (address => Player) players;\n\n    function bet_commit(bytes32 _commit) payable public {\n        require(msg.value >= 0.01 ether);\n        players[msg.sender].bet_amount = (uint)(msg.value);\n        players[msg.sender].idx = curr_card_index;\n        players[msg.sender].commitment = _commit;\n        if(block.number >= start_block + wait_blocks) {\n            new_card();\n        }\n    }\n\n    function bet_reveal(uint8 choice, uint256 nonce) public {\n        require(curr_card_index - players[msg.sender].idx > 0 && curr_card_index - players[msg.sender].idx < SHUFFLE_LIMIT);\n        if(block.number >= start_block + wait_blocks) {\n            new_card();\n        }\n        bytes32 test_hash = keccak256(abi.encodePacked(choice, nonce));\n        uint bet_card = cards[players[msg.sender].idx] % SUITE_SIZE;\n        uint result_card = cards[addmod(players[msg.sender].idx, 1, SHUFFLE_LIMIT)] % SUITE_SIZE;\n        if(test_hash == players[msg.sender].commitment) {\n            if (result_card == bet_card)\n                house.transfer(players[msg.sender].bet_amount);\n            else if (result_card < bet_card && choice == 0)\n                msg.sender.transfer(2*players[msg.sender].bet_amount);\n            else if (result_card > bet_card && choice == 1)\n                msg.sender.transfer(2*players[msg.sender].bet_amount);\n        }\n    }\n}\n",
  "sourcePath": "/home/bhavidhingra/google-drive-iiith/Semester_#3/CSE512_Distributing_Trust_and_Block_Chains/Assignments/1/HighLow/contracts/HighLow.sol",
  "compiler": {
    "name": "solc",
    "version": "0.5.8+commit.23d335f2.Emscripten.clang"
  },
  "schemaVersion": "3.0.16",
  "updatedAt": "2019-09-16T07:34:34.647Z",
  "devdoc": {
    "methods": {}
  },
  "userdoc": {
    "methods": {}
  }
}